{
  "_format": "hh-sol-artifact-1",
  "contractName": "WavePortal",
  "sourceName": "contracts/WavePortal.sol",
  "abi": [
    {
      "inputs": [],
      "stateMutability": "payable",
      "type": "constructor"
    },
    {
      "anonymous": false,
      "inputs": [
        {
          "indexed": true,
          "internalType": "address",
          "name": "from",
          "type": "address"
        },
        {
          "indexed": false,
          "internalType": "uint256",
          "name": "timestamp",
          "type": "uint256"
        },
        {
          "indexed": false,
          "internalType": "string",
          "name": "message",
          "type": "string"
        }
      ],
      "name": "NewWave",
      "type": "event"
    },
    {
      "inputs": [],
      "name": "getAllWaves",
      "outputs": [
        {
          "components": [
            {
              "internalType": "address",
              "name": "waver",
              "type": "address"
            },
            {
              "internalType": "string",
              "name": "message",
              "type": "string"
            },
            {
              "internalType": "uint256",
              "name": "timestamp",
              "type": "uint256"
            }
          ],
          "internalType": "struct WavePortal.Wave[]",
          "name": "",
          "type": "tuple[]"
        }
      ],
      "stateMutability": "view",
      "type": "function"
    },
    {
      "inputs": [],
      "name": "getTotalWaves",
      "outputs": [
        {
          "internalType": "uint256",
          "name": "",
          "type": "uint256"
        }
      ],
      "stateMutability": "view",
      "type": "function"
    },
    {
      "inputs": [
        {
          "internalType": "address",
          "name": "_address",
          "type": "address"
        }
      ],
      "name": "vote",
      "outputs": [],
      "stateMutability": "nonpayable",
      "type": "function"
    },
    {
      "inputs": [
        {
          "internalType": "string",
          "name": "_message",
          "type": "string"
        }
      ],
      "name": "wave",
      "outputs": [],
      "stateMutability": "nonpayable",
      "type": "function"
    }
  ],
  "bytecode": "0x608060405262000033604051806060016040528060238152602001620013ba602391396200003960201b620006141760201c565b620001cd565b620000d98160405160240162000050919062000146565b6040516020818303038152906040527f41304fac000000000000000000000000000000000000000000000000000000007bffffffffffffffffffffffffffffffffffffffffffffffffffffffff19166020820180517bffffffffffffffffffffffffffffffffffffffffffffffffffffffff8381831617835250505050620000dc60201b60201c565b50565b60008151905060006a636f6e736f6c652e6c6f679050602083016000808483855afa5050505050565b600062000112826200016a565b6200011e818562000175565b93506200013081856020860162000186565b6200013b81620001bc565b840191505092915050565b6000602082019050818103600083015262000162818462000105565b905092915050565b600081519050919050565b600082825260208201905092915050565b60005b83811015620001a657808201518184015260208101905062000189565b83811115620001b6576000848401525b50505050565b6000601f19601f8301169050919050565b6111dd80620001dd6000396000f3fe608060405234801561001057600080fd5b506004361061004c5760003560e01c8063449d46c0146100515780636dd7d8ea1461006d5780639a2cdc0814610089578063bd43a908146100a7575b600080fd5b61006b600480360381019061006691906109f9565b6100c5565b005b610087600480360381019061008291906109d0565b610339565b005b610091610478565b60405161009e9190610db9565b60405180910390f35b6100af6104c3565b6040516100bc9190610c62565b60405180910390f35b60016000808282546100d79190610ecb565b9250508190555061011e6040518060400160405280601681526020017f257320776176656420772f206d6573736167652025730000000000000000000081525033836106ad565b600160405180606001604052803373ffffffffffffffffffffffffffffffffffffffff16815260200183815260200142815250908060018154018082558091505060019003906000526020600020906003020160009091909190915060008201518160000160006101000a81548173ffffffffffffffffffffffffffffffffffffffff021916908373ffffffffffffffffffffffffffffffffffffffff16021790555060208201518160010190805190602001906101dd9291906108b0565b506040820151816002015550503373ffffffffffffffffffffffffffffffffffffffff167f5f7e16dc676677766a70e9c5628aa6c54ddb8b6e5188e2ae1e1f17f1ffbea7164283604051610232929190610dd4565b60405180910390a26000655af3107a4000905047811115610288576040517f08c379a000000000000000000000000000000000000000000000000000000000815260040161027f90610d59565b60405180910390fd5b60003373ffffffffffffffffffffffffffffffffffffffff16826040516102ae90610c4d565b60006040518083038185875af1925050503d80600081146102eb576040519150601f19603f3d011682016040523d82523d6000602084013e6102f0565b606091505b5050905080610334576040517f08c379a000000000000000000000000000000000000000000000000000000000815260040161032b90610d79565b60405180910390fd5b505050565b6103796040518060400160405280601381526020017f257320697320766f74696e6720666f7220257300000000000000000000000000815250338361074c565b6000655af3107a40009050478111156103c7576040517f08c379a00000000000000000000000000000000000000000000000000000000081526004016103be90610d59565b60405180910390fd5b60008273ffffffffffffffffffffffffffffffffffffffff16826040516103ed90610c4d565b60006040518083038185875af1925050503d806000811461042a576040519150601f19603f3d011682016040523d82523d6000602084013e61042f565b606091505b5050905080610473576040517f08c379a000000000000000000000000000000000000000000000000000000000815260040161046a90610d99565b60405180910390fd5b505050565b60006104bb6040518060400160405280601781526020017f5765206861766520256420746f74616c207761766573210000000000000000008152506000546107eb565b600054905090565b60606001805480602002602001604051908101604052809291908181526020016000905b8282101561060b57838290600052602060002090600302016040518060600160405290816000820160009054906101000a900473ffffffffffffffffffffffffffffffffffffffff1673ffffffffffffffffffffffffffffffffffffffff1673ffffffffffffffffffffffffffffffffffffffff16815260200160018201805461057090610f9f565b80601f016020809104026020016040519081016040528092919081815260200182805461059c90610f9f565b80156105e95780601f106105be576101008083540402835291602001916105e9565b820191906000526020600020905b8154815290600101906020018083116105cc57829003601f168201915b50505050508152602001600282015481525050815260200190600101906104e7565b50505050905090565b6106aa816040516024016106289190610c84565b6040516020818303038152906040527f41304fac000000000000000000000000000000000000000000000000000000007bffffffffffffffffffffffffffffffffffffffffffffffffffffffff19166020820180517bffffffffffffffffffffffffffffffffffffffffffffffffffffffff8381831617835250505050610887565b50565b6107478383836040516024016106c593929190610ce4565b6040516020818303038152906040527fe0e9ad4f000000000000000000000000000000000000000000000000000000007bffffffffffffffffffffffffffffffffffffffffffffffffffffffff19166020820180517bffffffffffffffffffffffffffffffffffffffffffffffffffffffff8381831617835250505050610887565b505050565b6107e683838360405160240161076493929190610ca6565b6040516020818303038152906040527ffcec75e0000000000000000000000000000000000000000000000000000000007bffffffffffffffffffffffffffffffffffffffffffffffffffffffff19166020820180517bffffffffffffffffffffffffffffffffffffffffffffffffffffffff8381831617835250505050610887565b505050565b6108838282604051602401610801929190610d29565b6040516020818303038152906040527f9710a9d0000000000000000000000000000000000000000000000000000000007bffffffffffffffffffffffffffffffffffffffffffffffffffffffff19166020820180517bffffffffffffffffffffffffffffffffffffffffffffffffffffffff8381831617835250505050610887565b5050565b60008151905060006a636f6e736f6c652e6c6f679050602083016000808483855afa5050505050565b8280546108bc90610f9f565b90600052602060002090601f0160209004810192826108de5760008555610925565b82601f106108f757805160ff1916838001178555610925565b82800160010185558215610925579182015b82811115610924578251825591602001919060010190610909565b5b5090506109329190610936565b5090565b5b8082111561094f576000816000905550600101610937565b5090565b600061096661096184610e29565b610e04565b90508281526020810184848401111561097e57600080fd5b610989848285610f5d565b509392505050565b6000813590506109a081611190565b92915050565b600082601f8301126109b757600080fd5b81356109c7848260208601610953565b91505092915050565b6000602082840312156109e257600080fd5b60006109f084828501610991565b91505092915050565b600060208284031215610a0b57600080fd5b600082013567ffffffffffffffff811115610a2557600080fd5b610a31848285016109a6565b91505092915050565b6000610a468383610bdf565b905092915050565b610a5781610f21565b82525050565b610a6681610f21565b82525050565b6000610a7782610e6a565b610a818185610e8d565b935083602082028501610a9385610e5a565b8060005b85811015610acf5784840389528151610ab08582610a3a565b9450610abb83610e80565b925060208a01995050600181019050610a97565b50829750879550505050505092915050565b6000610aec82610e75565b610af68185610ea9565b9350610b06818560208601610f6c565b610b0f8161108f565b840191505092915050565b6000610b2582610e75565b610b2f8185610eba565b9350610b3f818560208601610f6c565b610b488161108f565b840191505092915050565b6000610b60603483610eba565b9150610b6b826110a0565b604082019050919050565b6000610b83602783610eba565b9150610b8e826110ef565b604082019050919050565b6000610ba6602683610eba565b9150610bb18261113e565b604082019050919050565b6000610bc9600083610e9e565b9150610bd48261118d565b600082019050919050565b6000606083016000830151610bf76000860182610a4e565b5060208301518482036020860152610c0f8282610ae1565b9150506040830151610c246040860182610c2f565b508091505092915050565b610c3881610f53565b82525050565b610c4781610f53565b82525050565b6000610c5882610bbc565b9150819050919050565b60006020820190508181036000830152610c7c8184610a6c565b905092915050565b60006020820190508181036000830152610c9e8184610b1a565b905092915050565b60006060820190508181036000830152610cc08186610b1a565b9050610ccf6020830185610a5d565b610cdc6040830184610a5d565b949350505050565b60006060820190508181036000830152610cfe8186610b1a565b9050610d0d6020830185610a5d565b8181036040830152610d1f8184610b1a565b9050949350505050565b60006040820190508181036000830152610d438185610b1a565b9050610d526020830184610c3e565b9392505050565b60006020820190508181036000830152610d7281610b53565b9050919050565b60006020820190508181036000830152610d9281610b76565b9050919050565b60006020820190508181036000830152610db281610b99565b9050919050565b6000602082019050610dce6000830184610c3e565b92915050565b6000604082019050610de96000830185610c3e565b8181036020830152610dfb8184610b1a565b90509392505050565b6000610e0e610e1f565b9050610e1a8282610fd1565b919050565b6000604051905090565b600067ffffffffffffffff821115610e4457610e43611060565b5b610e4d8261108f565b9050602081019050919050565b6000819050602082019050919050565b600081519050919050565b600081519050919050565b6000602082019050919050565b600082825260208201905092915050565b600081905092915050565b600082825260208201905092915050565b600082825260208201905092915050565b6000610ed682610f53565b9150610ee183610f53565b9250827fffffffffffffffffffffffffffffffffffffffffffffffffffffffffffffffff03821115610f1657610f15611002565b5b828201905092915050565b6000610f2c82610f33565b9050919050565b600073ffffffffffffffffffffffffffffffffffffffff82169050919050565b6000819050919050565b82818337600083830152505050565b60005b83811015610f8a578082015181840152602081019050610f6f565b83811115610f99576000848401525b50505050565b60006002820490506001821680610fb757607f821691505b60208210811415610fcb57610fca611031565b5b50919050565b610fda8261108f565b810181811067ffffffffffffffff82111715610ff957610ff8611060565b5b80604052505050565b7f4e487b7100000000000000000000000000000000000000000000000000000000600052601160045260246000fd5b7f4e487b7100000000000000000000000000000000000000000000000000000000600052602260045260246000fd5b7f4e487b7100000000000000000000000000000000000000000000000000000000600052604160045260246000fd5b6000601f19601f8301169050919050565b7f547279696e6720746f207769746864726177206d6f7265206d6f6e657920746860008201527f616e2074686520636f6e7472616374206861732e000000000000000000000000602082015250565b7f4661696c656420746f207769746864726177206d6f6e65792066726f6d20636f60008201527f6e74726163742e00000000000000000000000000000000000000000000000000602082015250565b7f4661696c656420746f207769746864726177206d6f6e65792066726f6d20636f60008201527f6e74726163740000000000000000000000000000000000000000000000000000602082015250565b50565b61119981610f21565b81146111a457600080fd5b5056fea2646970667358221220028295919cd2fa005d7ce3703e42794e3d60f7bde523bb28885006ffb77227b064736f6c6343000804003353617373794d61737365792068617320612070617961626c6520636f6e747261637421",
  "linkReferences": {},
  "deployedLinkReferences": {}
}