{
  "_format": "hh-sol-artifact-1",
  "contractName": "WavePortal",
  "sourceName": "contracts/WavePortal.sol",
  "abi": [
    {
      "inputs": [],
      "stateMutability": "nonpayable",
      "type": "constructor"
    },
    {
      "inputs": [
        {
          "internalType": "address",
          "name": "",
          "type": "address"
        }
      ],
      "name": "countSenderWaves",
      "outputs": [
        {
          "internalType": "uint256",
          "name": "",
          "type": "uint256"
        }
      ],
      "stateMutability": "view",
      "type": "function"
    },
    {
      "inputs": [],
      "name": "getTotalWaves",
      "outputs": [
        {
          "internalType": "uint256",
          "name": "",
          "type": "uint256"
        }
      ],
      "stateMutability": "view",
      "type": "function"
    },
    {
      "inputs": [],
      "name": "getWavers",
      "outputs": [],
      "stateMutability": "nonpayable",
      "type": "function"
    },
    {
      "inputs": [],
      "name": "wave",
      "outputs": [],
      "stateMutability": "nonpayable",
      "type": "function"
    },
    {
      "inputs": [
        {
          "internalType": "uint256",
          "name": "",
          "type": "uint256"
        }
      ],
      "name": "wavers",
      "outputs": [
        {
          "internalType": "address",
          "name": "",
          "type": "address"
        }
      ],
      "stateMutability": "view",
      "type": "function"
    }
  ],
  "bytecode": "0x608060405234801561001057600080fd5b5061003c604051806060016040528060388152602001610aa66038913961004160201b6103741760201c565b6101c4565b6100dd816040516024016100559190610142565b6040516020818303038152906040527f41304fac000000000000000000000000000000000000000000000000000000007bffffffffffffffffffffffffffffffffffffffffffffffffffffffff19166020820180517bffffffffffffffffffffffffffffffffffffffffffffffffffffffff83818316178352505050506100e060201b60201c565b50565b60008151905060006a636f6e736f6c652e6c6f679050602083016000808483855afa5050505050565b600061011482610164565b61011e818561016f565b935061012e818560208601610180565b610137816101b3565b840191505092915050565b6000602082019050818103600083015261015c8184610109565b905092915050565b600081519050919050565b600082825260208201905092915050565b60005b8381101561019e578082015181840152602081019050610183565b838111156101ad576000848401525b50505050565b6000601f19601f8301169050919050565b6108d3806101d36000396000f3fe608060405234801561001057600080fd5b50600436106100575760003560e01c80633ca736bd1461005c57806354c946e11461008c578063635f29f8146100bc5780636fe15b44146100c65780639a2cdc08146100d0575b600080fd5b610076600480360381019061007191906105c1565b6100ee565b6040516100839190610641565b60405180910390f35b6100a660048036038101906100a19190610598565b61012d565b6040516100b391906106de565b60405180910390f35b6100c4610145565b005b6100ce6101de565b005b6100d8610329565b6040516100e591906106de565b60405180910390f35b600281815481106100fe57600080fd5b906000526020600020016000915054906101000a900473ffffffffffffffffffffffffffffffffffffffff1681565b60016020528060005260406000206000915090505481565b6101dc60405180606001604052806021815260200161087d6021913960026001600280549050610175919061076b565b815481106101ac577f4e487b7100000000000000000000000000000000000000000000000000000000600052603260045260246000fd5b9060005260206000200160009054906101000a900473ffffffffffffffffffffffffffffffffffffffff1661040d565b565b60016000808282546101f09190610715565b925050819055506102366040518060400160405280600d81526020017f25732068617320776176656421000000000000000000000000000000000000008152503361040d565b60018060003373ffffffffffffffffffffffffffffffffffffffff1673ffffffffffffffffffffffffffffffffffffffff168152602001908152602001600020546102819190610715565b600160003373ffffffffffffffffffffffffffffffffffffffff1673ffffffffffffffffffffffffffffffffffffffff168152602001908152602001600020819055506002339080600181540180825580915050600190039060005260206000200160009091909190916101000a81548173ffffffffffffffffffffffffffffffffffffffff021916908373ffffffffffffffffffffffffffffffffffffffff160217905550565b600061036c6040518060400160405280601781526020017f5765206861766520256420746f74616c207761766573210000000000000000008152506000546104a9565b600054905090565b61040a81604051602401610388919061065c565b6040516020818303038152906040527f41304fac000000000000000000000000000000000000000000000000000000007bffffffffffffffffffffffffffffffffffffffffffffffffffffffff19166020820180517bffffffffffffffffffffffffffffffffffffffffffffffffffffffff8381831617835250505050610545565b50565b6104a5828260405160240161042392919061067e565b6040516020818303038152906040527f319af333000000000000000000000000000000000000000000000000000000007bffffffffffffffffffffffffffffffffffffffffffffffffffffffff19166020820180517bffffffffffffffffffffffffffffffffffffffffffffffffffffffff8381831617835250505050610545565b5050565b61054182826040516024016104bf9291906106ae565b6040516020818303038152906040527f9710a9d0000000000000000000000000000000000000000000000000000000007bffffffffffffffffffffffffffffffffffffffffffffffffffffffff19166020820180517bffffffffffffffffffffffffffffffffffffffffffffffffffffffff8381831617835250505050610545565b5050565b60008151905060006a636f6e736f6c652e6c6f679050602083016000808483855afa5050505050565b60008135905061057d8161084e565b92915050565b60008135905061059281610865565b92915050565b6000602082840312156105aa57600080fd5b60006105b88482850161056e565b91505092915050565b6000602082840312156105d357600080fd5b60006105e184828501610583565b91505092915050565b6105f38161079f565b82525050565b6000610604826106f9565b61060e8185610704565b935061061e8185602086016107db565b6106278161083d565b840191505092915050565b61063b816107d1565b82525050565b600060208201905061065660008301846105ea565b92915050565b6000602082019050818103600083015261067681846105f9565b905092915050565b6000604082019050818103600083015261069881856105f9565b90506106a760208301846105ea565b9392505050565b600060408201905081810360008301526106c881856105f9565b90506106d76020830184610632565b9392505050565b60006020820190506106f36000830184610632565b92915050565b600081519050919050565b600082825260208201905092915050565b6000610720826107d1565b915061072b836107d1565b9250827fffffffffffffffffffffffffffffffffffffffffffffffffffffffffffffffff038211156107605761075f61080e565b5b828201905092915050565b6000610776826107d1565b9150610781836107d1565b9250828210156107945761079361080e565b5b828203905092915050565b60006107aa826107b1565b9050919050565b600073ffffffffffffffffffffffffffffffffffffffff82169050919050565b6000819050919050565b60005b838110156107f95780820151818401526020810190506107de565b83811115610808576000848401525b50505050565b7f4e487b7100000000000000000000000000000000000000000000000000000000600052601160045260246000fd5b6000601f19601f8301169050919050565b6108578161079f565b811461086257600080fd5b50565b61086e816107d1565b811461087957600080fd5b5056fe5468697320697320746865206d6f737420726563656e742077617665723a202573a2646970667358221220f77a3b46a9f989e146043605fda5c75dea3abb752ad26b93d3872b53beab438b64736f6c6343000804003353617373794d6173736579206465706c6f7965642068657220666972737420636f6e747261637420746f207468652054657374204e657421",
  "linkReferences": {},
  "deployedLinkReferences": {}
}